{
  "contractName": "MyBlockDiary",
  "abi": [
    {
      "inputs": [],
      "stateMutability": "nonpayable",
      "type": "constructor"
    },
    {
      "inputs": [
        {
          "internalType": "uint256",
          "name": "",
          "type": "uint256"
        }
      ],
      "name": "cids",
      "outputs": [
        {
          "internalType": "string",
          "name": "",
          "type": "string"
        }
      ],
      "stateMutability": "view",
      "type": "function",
      "constant": true
    },
    {
      "inputs": [
        {
          "internalType": "string",
          "name": "cid",
          "type": "string"
        }
      ],
      "name": "addCid",
      "outputs": [],
      "stateMutability": "nonpayable",
      "type": "function"
    }
  ],
  "bytecode": "0x608060405234801561001057600080fd5b5033600160006101000a81548173ffffffffffffffffffffffffffffffffffffffff021916908373ffffffffffffffffffffffffffffffffffffffff160217905550610433806100616000396000f3fe608060405234801561001057600080fd5b50600436106100365760003560e01c8063704fe7101461003b578063790a3aa5146100e2575b600080fd5b6100676004803603602081101561005157600080fd5b810190808035906020019092919050505061019d565b6040518080602001828103825283818151815260200191508051906020019080838360005b838110156100a757808201518184015260208101905061008c565b50505050905090810190601f1680156100d45780820380516001836020036101000a031916815260200191505b509250505060405180910390f35b61019b600480360360208110156100f857600080fd5b810190808035906020019064010000000081111561011557600080fd5b82018360208201111561012757600080fd5b8035906020019184600183028401116401000000008311171561014957600080fd5b91908080601f016020809104026020016040519081016040528093929190818152602001838380828437600081840152601f19601f820116905080830192505050505050509192919290505050610256565b005b600081815481106101aa57fe5b906000526020600020016000915090508054600181600116156101000203166002900480601f01602080910402602001604051908101604052809291908181526020018280546001816001161561010002031660029004801561024e5780601f106102235761010080835404028352916020019161024e565b820191906000526020600020905b81548152906001019060200180831161023157829003601f168201915b505050505081565b600160009054906101000a900473ffffffffffffffffffffffffffffffffffffffff1673ffffffffffffffffffffffffffffffffffffffff163373ffffffffffffffffffffffffffffffffffffffff1614610319576040517f08c379a00000000000000000000000000000000000000000000000000000000081526004018080602001828103825260158152602001807f4f6e6c79206f776e65722063616e20616363657373000000000000000000000081525060200191505060405180910390fd5b600081908060018154018082558091505060019003906000526020600020016000909190919091509080519060200190610354929190610358565b5050565b828054600181600116156101000203166002900490600052602060002090601f016020900481019282601f1061039957805160ff19168380011785556103c7565b828001600101855582156103c7579182015b828111156103c65782518255916020019190600101906103ab565b5b5090506103d491906103d8565b5090565b6103fa91905b808211156103f65760008160009055506001016103de565b5090565b9056fea26469706673582212203ad691c08ee007505799fe5ccb28fb0fc5ab5aaa071b6fe77f19f60a0b8c54ae64736f6c63430006040033",
  "source": "pragma solidity ^0.6.0;\r\n\r\ncontract MyBlockDiary {\r\n    string[] public cids;\r\n    address private owner;\r\n\r\n    modifier onlyOwner {\r\n        require(msg.sender == owner, \"Only owner can access\");\r\n        _;\r\n    }\r\n\r\n    constructor() public {\r\n        owner = msg.sender;\r\n    }\r\n\r\n    function addCid(string memory cid) public onlyOwner {\r\n        cids.push(cid);\r\n    }\r\n}\r\n",
  "sourcePath": "H:/Learning/MyBlockDiary/blockchain/contracts/MyBlockDiary.sol",
  "compiler": {
    "name": "solc",
    "version": "0.6.4+commit.1dca32f3.Emscripten.clang"
  },
  "schemaVersion": "3.0.21",
  "updatedAt": "2020-03-31T10:47:31.944Z",
  "networkType": "ethereum",
  "devdoc": {
    "methods": {}
  },
  "userdoc": {
    "methods": {}
  }
}