{
  "contractName": "MyBlockDiary",
  "abi": [
    {
      "inputs": [],
      "stateMutability": "nonpayable",
      "type": "constructor"
    },
    {
      "inputs": [
        {
          "internalType": "uint256",
          "name": "",
          "type": "uint256"
        }
      ],
      "name": "cids",
      "outputs": [
        {
          "internalType": "bytes32",
          "name": "",
          "type": "bytes32"
        }
      ],
      "stateMutability": "view",
      "type": "function",
      "constant": true
    },
    {
      "inputs": [
        {
          "internalType": "bytes32",
          "name": "cid",
          "type": "bytes32"
        }
      ],
      "name": "addCid",
      "outputs": [],
      "stateMutability": "nonpayable",
      "type": "function"
    },
    {
      "inputs": [],
      "name": "getCids",
      "outputs": [
        {
          "internalType": "bytes32[]",
          "name": "_cids",
          "type": "bytes32[]"
        }
      ],
      "stateMutability": "view",
      "type": "function",
      "constant": true
    }
  ],
  "bytecode": "0x608060405234801561001057600080fd5b5033600160006101000a81548173ffffffffffffffffffffffffffffffffffffffff021916908373ffffffffffffffffffffffffffffffffffffffff1602179055506102b3806100616000396000f3fe608060405234801561001057600080fd5b50600436106100415760003560e01c806330a29d3914610046578063704fe710146100a55780637f268248146100e7575b600080fd5b61004e610115565b6040518080602001828103825283818151815260200191508051906020019060200280838360005b83811015610091578082015181840152602081019050610076565b505050509050019250505060405180910390f35b6100d1600480360360208110156100bb57600080fd5b810190808035906020019092919050505061016d565b6040518082815260200191505060405180910390f35b610113600480360360208110156100fd57600080fd5b810190808035906020019092919050505061018e565b005b6060600080548060200260200160405190810160405280929190818152602001828054801561016357602002820191906000526020600020905b81548152602001906001019080831161014f575b5050505050905090565b6000818154811061017a57fe5b906000526020600020016000915090505481565b600160009054906101000a900473ffffffffffffffffffffffffffffffffffffffff1673ffffffffffffffffffffffffffffffffffffffff163373ffffffffffffffffffffffffffffffffffffffff1614610251576040517f08c379a00000000000000000000000000000000000000000000000000000000081526004018080602001828103825260158152602001807f4f6e6c79206f776e65722063616e20616363657373000000000000000000000081525060200191505060405180910390fd5b60008190806001815401808255809150506001900390600052602060002001600090919091909150555056fea2646970667358221220e7ca9b81f8614316869af02b346f55d889d42817950d009edfc6c5e88f69da8764736f6c63430006040033",
  "source": "pragma solidity ^0.6.0;\r\n\r\ncontract MyBlockDiary {\r\n    bytes32[] public cids;\r\n    address private owner;\r\n\r\n    modifier onlyOwner {\r\n        require(msg.sender == owner, \"Only owner can access\");\r\n        _;\r\n    }\r\n\r\n    constructor() public {\r\n        owner = msg.sender;\r\n    }\r\n\r\n    function addCid(bytes32 cid) external onlyOwner {\r\n        cids.push(cid);\r\n    }\r\n\r\n    function getCids() external view returns (bytes32[] memory _cids) {\r\n        return cids;\r\n    }\r\n}\r\n",
  "sourcePath": "H:/Learning/MyBlockDiary/blockchain/contracts/MyBlockDiary.sol",
  "compiler": {
    "name": "solc",
    "version": "0.6.4+commit.1dca32f3.Emscripten.clang"
  },
  "schemaVersion": "3.0.21",
  "updatedAt": "2020-03-31T04:02:53.431Z",
  "networkType": "ethereum",
  "devdoc": {
    "methods": {}
  },
  "userdoc": {
    "methods": {}
  }
}